:1000000078C00000A5C00000A3C00000A1C000008F
:100010009FC000009DC000009BC0000099C0000070
:1000200097C0000095C0000093C0000091C0000080
:100030008FC000008DC000008BC0000089C0000090
:1000400087C00000E6C2000083C0000081C000003D
:100050007FC000007DC000007BC0000079C00000B0
:1000600077C00000ADC2000073C0000080C2000075
:100070006FC000006DC000006BC0000069C00000D0
:1000800067C0000065C0000063C0000061C00000E0
:100090005FC000005DC000005BC0000059C00000F0
:1000A00057C0000055C0000053C0000051C0000000
:1000B0004FC000004DC000004BC0000049C0000010
:1000C00047C0000045C0000043C0000041C0000020
:1000D0003FC000003DC000003BC0000039C0000030
:1000E00037C000006364696E6F70737578585B0089
:1000F000730311241FBECFEFD1E2DEBFCDBF00E0FE
:100100000CBF14E0A0E0B2E0EAE1F5E100E00BBFD3
:1001100002C007900D92A43EB107D9F725E0A4EEE6
:10012000B4E001C01D92A83CB207E1F710E0C9E7B6
:10013000D0E000E005C021970109802FFE011CD509
:10014000C837D10780E00807B1F78FD20C948B0A2B
:1001500057CFFC011082148216821582728361834C
:1001600008958FEF84B985B911B881E19AE790932A
:10017000890080938800E1E8F0E0808188608083D6
:10018000808184608083EFE6F0E0808182608083FC
:100190000895FC0121E030E002C0220F331F6A9570
:1001A000E2F7822F8095938198239383442319F05B
:1001B000413029F0089585B1282B25B9089595B1CE
:1001C000892385B9089523B130E002C0359527957C
:1001D0006A95E2F781E090E020FF02C080E090E0C5
:1001E000089520B130E002C0359527956A95E2F771
:1001F00081E090E020FF02C080E090E00895FC01E3
:100200008081882369F085819681059724F081E0BB
:1002100084831682158285819681019696838583D3
:100220000895CF93DF93EC0166E072E089819A81B3
:10023000FAD364E372E089819A81F5D36EE572E0C6
:1002400089819A81F0D368E872E089819A81EBD341
:1002500068EB72E089819A81E6D362EF72E089816E
:100260009A81E1D366E273E089819A81DCD361E50A
:1002700073E089819A81D7D36CE773E089819A8191
:10028000D2D3DF91CF91089521E030E002C0220F58
:10029000331F6A95E2F7FC013381232B23830895F2
:1002A00025B1FC018381822785B90895FC01248151
:1002B000222331F0148267ED73E081819281B3C310
:1002C0000895FC01128674876387568745870895D1
:1002D000EF92FF920F931F93CF93DF938B01C0E0B8
:1002E000D0E0F80101900020E9F73197E01BF10B15
:1002F000CE17DF0758F47801EC0EFD1EF701808160
:1003000090E067D5F70180832196EBCFDF91CF9105
:100310001F910F91FF90EF900895EF92FF920F932E
:100320001F93CF93DF931F921F92CDB7DEB78C013F
:100330007B01CEDF6FE074E0C70153D5D8018D9308
:100340009C93F12CB7E0BF15A0F06FE074E080E063
:1003500090E047D5009769F0EF2DF0E03196EE0F71
:10036000FF1FE00FF11F91838083F394F801F28661
:10037000E9CFD80112962C91129713963C91CE0199
:1003800001969F938F9381EF93E09F938F933F9379
:100390002F936AD5F801E080F18066EF73E0C70122
:1003A0002CD50F900F900F900F900F900F900097FB
:1003B000C1F5D8011A962C911A97223090F16981D3
:1003C0007A8141E01B968D919C911C97E2DEF801A9
:1003D000E480F5806AEF73E0C7010FD5892B51F4F3
:1003E00069817A8141E0D8011B968D919C911C977F
:1003F000D0DE80C06DEF73E0C701FFD4892B39F4E4
:1004000069817A81F801838594853EDF73C06981B3
:100410007A8140E0D8011B968D919C911C97B9DEA2
:1004200069C0892B01F5F80182858130E1F463E030
:1004300074E085859685F7D269817A81D8011B960B
:100440008D919C911C97BFDE60E3680FF801858554
:1004500096851DD360E974E0D8011D968D919C911D
:100460001E97E1D247C061E174E0C701C6D4892B71
:1004700001F5F80182858823E1F068E174E0858563
:100480009685D1D269817A81D8011B968D919C91F4
:100490001C97A7DE60E3680FF80185859685F7D283
:1004A00060E974E0D8011D968D919C911E97BBD296
:1004B00021C069E274E0C701A0D4892B79F4F80166
:1004C0008285882359F00384F485E02D81E0298119
:1004D0003A81232B09F480E080830CC06EE274E043
:1004E000C7018BD4892B31F4D8011B968D919C9137
:1004F0001C9797DE0F900F90DF91CF911F910F9176
:10050000FF90EF900895019789F56F3F7F4F71F548
:1005100088EE93E029D1EDEEF4E09183808312829E
:100520008DE083838AE08483158287E08683178247
:1005300010861186128684E6E8EFF4E0DF01982F3A
:100540001D929A95E9F710925D0510925C05EEE513
:10055000F5E0DF011D928A95E9F71092C30510922C
:10056000C2056DEE74E086EE94E0F3CD08951F921F
:100570000F920FB60F9211240BB60F922F933F9349
:100580004F935F936F937F938F939F93AF93BF939B
:10059000EF93FF938DEE94E017D2FF91EF91BF910F
:1005A000AF919F918F917F916F915F914F913F910B
:1005B0002F910F900BBE0F900FBE0F901F901895AC
:1005C0001F920F920FB60F9211240BB60F922F931A
:1005D0003F934F935F936F937F938F939F93AF93CB
:1005E000BF93EF93FF938DEE94E063D2FF91EF9171
:1005F000BF91AF919F918F917F916F915F914F913B
:100600003F912F910F900BBE0F900FBE0F901F9038
:1006100018951F920F920FB60F9211240BB60F92DE
:100620002F933F934F935F936F937F938F939F93FA
:10063000AF93BF93EF93FF9386EE94E031DE86EEA7
:1006400094E0DDDDFF91EF91BF91AF919F918F918C
:100650007F916F915F914F913F912F910F900BBEC2
:100660000F900FBE0F901F901895CF93DF93CDB7CB
:10067000DEB72F970FB6F894DEBF0FBECDBF8DEE5D
:1006800094E096D186EE94E06CDD4DEE54E066EE9B
:1006900074E0CE01019615DE80E98093C100789464
:1006A00063E374E08DEE94E0BED16DE574E08DEE11
:1006B00094E0B9D163E874E08DEE94E0B4D163E9DD
:1006C00074E08DEE94E0AFD18091F604882339F088
:1006D0001092F60468EF74E0CE0101961EDE86EEFD
:1006E00094E0E4DDF1CF6FEF7FEF81E090E00BCF9E
:1006F0000895FC01868197810895CF93DF93FC01D3
:10070000C081D181F6DF8C0F9D1FDF91CF910895BD
:10071000EF92FF920F931F93CF93DF937C01EB0136
:10072000FC01008111816017710720F0E6DFC81716
:10073000D90708F04AD32196C01BD10BC701D9DFD6
:10074000BC01CE0105D2800F911FDF91CF911F9187
:100750000F91FF90EF900895FC0180819181958326
:1007600084839383828308950F931F93CF93DF93A2
:100770008C0188E090E008D2EC01009799F0C80164
:1007800001969F838E8300D299838883892B29F0D9
:10079000CE01E2DF8C2F9D2F06C0CE018DD280E0EE
:1007A00090E001C09D2FDF91CF911F910F9108958F
:1007B000A0DF019708950F931F93CF93DF93FC0160
:1007C00002811381C481D5810C171D0730F0F0DF41
:1007D0000C1B1D0B801B910B04C0CE01801B910BC9
:1007E0000197DF91CF911F910F9108950F931F9360
:1007F000CF93DF93EC01DCDF8C01CE01DCDF9801CD
:10080000281B390BC901DF91CF911F910F910895DA
:10081000D2DF21E0892B09F020E0822F90E00895BB
:100820006F927F928F929F92AF92BF92CF92DF9200
:10083000EF92FF920F931F93CF93DF937C014B01B5
:100840005A015BDF6C01C701B6DF3C0100E010E03C
:1008500026C0F701828193818C159D0508F0B5D2E1
:100860009601281B390BE501C01BD10B2C173D0746
:1008700008F4E901B401600F711FAE01B5D2F701B0
:10088000828193818C0F9D1F938382830C0F1D1F88
:10089000C816D90621F480819181938382830A1539
:1008A0001B05B9F66A147B0468F4F7016281738151
:1008B000C7012EDFF70195838483C701A9DF892B48
:1008C00009F483D2F70182819381DF91CF911F9147
:1008D0000F91FF90EF90DF90CF90BF90AF909F90DF
:1008E0008F907F906F9008956F927F928F929F92DA
:1008F000AF92BF92CF92DF92EF92FF920F931F932E
:10090000CF93DF934C017B015A01CB016FDF3C0198
:100910008A159B0508F43BC0C701EFDE6C0100E0BF
:1009200010E026C0F701648175816C157D0508F023
:100930004CD2C601861B970BE501C01BD10B8C174F
:100940009D0708F4EC01AE01C401800F911F4CD249
:10095000F701848195818C0F9D1F958384830C0FF3
:100960001D1FC816D90621F4808191819583848347
:100970000A151B05B9F6C70139DF8A0D9B1D6816DC
:10098000790609F022D2F7018481958102C080E0C6
:1009900090E0DF91CF911F910F91FF90EF90DF904A
:1009A000CF90BF90AF909F908F907F906F90089561
:1009B00080E98093C10086E08093C2001092C50058
:1009C00083E38093C4000895CF93DF93EC0188857F
:1009D000882381F01886BE016A5F7F4FFB0101907A
:1009E0000020E9F73197AF01461B570B88819981A9
:1009F00017DF16C088819981F9DE892B59F0FE0135
:100A000061917191CF0141E050E06EDF8A81809366
:100A1000C60006C0E1ECF0E0908180E48927808385
:100A2000DF91CF910895EF92FF920F931F93CF9391
:100A3000DF938C017B01EB0109900020E9F72197FE
:100A4000C61BD70BC1F0F80180819181B4DE8C17F1
:100A50009D07C8F3AE01B701F80180819181E0DE06
:100A60008091C10086FD07C0E1ECF0E080818864E0
:100A70008083C801A9DFDF91CF911F910F91FF9073
:100A8000EF900895BC016A5F7F4FCDCF0895CF935B
:100A9000DF931F921F92CDB7DEB71A821982698346
:100AA000BE016F5F7F4FBFDF0F900F90DF91CF913F
:100AB00008950F931F93CF93DF93EC011091C6001D
:100AC000612FE5DF1D30C1F4BE016D5F7F4FCE01A8
:100AD000AADF8E010F581F4FB801CE010B9696D199
:100AE00081E08987CB52DF4F1982188284E6F801B2
:100AF00011928A95E9F727C0183011F01F37B1F429
:100B0000FE01EB52FF4F80819181009719F4CE01D5
:100B1000B9DF19C0FE01E80FF91FEF58FF4F10822F
:100B2000CB52DF4F0197998388830DC0FE01EB52B2
:100B3000FF4F80819181C80FD91FCF58DF4F188395
:100B4000019691838083DF91CF911F910F9108953A
:100B5000AA1BBB1B51E107C0AA1FBB1FA617B707E3
:100B600010F0A61BB70B881F991F5A95A9F78095FF
:100B70009095BC01CD010895EE0FFF1F881F8BBF1C
:100B80000790F691E02D19940F931F93CF93DF9365
:100B90008230910510F482E090E0E091C605F0917A
:100BA000C70520E030E0A0E0B0E0309719F14081C7
:100BB00051810281138148175907C8F0841795079E
:100BC00069F4109731F012960C93129713961C93B8
:100BD00027C00093C6051093C70522C02115310513
:100BE00019F04217530718F49A01BD01EF01DF0114
:100BF000F801DBCF21153105F9F0281B390B243022
:100C0000310580F48A819B816115710521F0FB011A
:100C10009383828304C09093C7058093C605FE0129
:100C2000329644C0FE01E20FF31F8193919322504C
:100C30003109398328833AC02091C4053091C50514
:100C4000232B41F420910202309103023093C50519
:100C50002093C40520910002309101022115310535
:100C600041F42DB73EB74091040250910502241B78
:100C7000350BE091C405F091C505E217F307A0F428
:100C80002E1B3F0B2817390778F0AC014E5F5F4FE2
:100C90002417350748F04E0F5F1F5093C50540934A
:100CA000C4058193919302C0E0E0F0E0CF01DF91B1
:100CB000CF911F910F910895CF93DF93009709F47F
:100CC00081C0FC01329713821282A091C605B091B7
:100CD000C705109781F420813181820F931F2091E5
:100CE000C4053091C5052817390751F5F093C5059E
:100CF000E093C40567C0ED0120E030E0CE17DF07C8
:100D000040F44A815B819E0141155105F1F0EA01F1
:100D1000F5CFD383C28340815181840F951FC817BB
:100D2000D90759F488819981840F951F0296918380
:100D300080838A819B81938382832115310529F4E5
:100D4000F093C705E093C6053DC0E901FB83EA8344
:100D500049915991C40FD51FEC17FD0761F48081AB
:100D60009181840F951F0296E9019983888382817E
:100D700093819B838A83E0E0F0E012968D919C91B1
:100D80001397009719F0FD01DC01F7CF8D919C912D
:100D900011979D012E5F3F4F820F931F2091C40535
:100DA0003091C5052817390769F4309729F4109256
:100DB000C7051092C60502C013821282B093C50502
:100DC000A093C405DF91CF91089581E090E0F8945D
:100DD000A2C39111089581548A5108F4805E855A06
:100DE000089544EE54E019C0FB01DC0102C00190FB
:100DF0000D9241505040D8F70895FB01DC018D91D0
:100E0000019080190110D9F3990B0895FB01DC01C1
:100E100001900D920020E1F70895FA01A191B081AF
:100E2000009719F41097E1F0CD01DC01CD010D9090
:100E3000002011F4C00113C0FB012191222319F0FD
:100E40002015D9F7F3CFFB012191201519F41E923B
:100E5000119606C02223C1F70D900020A1F7D00102
:100E6000FA01A193B0830895CF93DF93CDB7DEB796
:100E70002E970FB6F894DEBF0FBECDBF85E08C83F2
:100E80008C899D899A838983AE01485E5F4F6E8904
:100E90007F89CE010196BBD12E960FB6F894DEBFA6
:100EA0000FBECDBFDF91CF91089520FD09C0FC0199
:100EB00023FD05C022FF02C07383628351834083F8
:100EC000089544FD17C046FD17C0AB01BC01DA010F
:100ED000FB01AA0FBB1FEE1FFF1F1094D1F74A0F93
:100EE0005B1F6E1F7F1FCB01BA01660F771F881F24
:100EF000991F09C033E001C034E0660F771F881FD7
:100F0000991F3150D1F7620F711D811D911D0895F8
:100F10000F931F93CF93DF938C01C801A2D2EC01F2
:100F200097FD06C08BD2892BC1F7B801CE01D7D26D
:100F3000CE01DF91CF911F910F9108958F929F92D3
:100F4000AF92BF92EF92FF920F931F93CF93DF93D5
:100F50008C01D62F7A01B22E84D29C0133272B32FA
:100F6000310531F02D32310559F48B2D8068B82EC2
:100F7000D15011F480E061C0C80173D297FDFACF5F
:100F8000CB2DCD7F2B2D2073F9F48033E9F4AA24E7
:100F9000AA94AD0E09F43EC0C80163D297FD3AC0D1
:100FA0009C012F7D33272835310541F4C264D2508E
:100FB00089F1C80156D297FF07C02CC0B6FE02C007
:100FC000C26001C0C261DA2D812C912C540120ED48
:100FD000280F283078F0C4FF03C0B80180D217C0B2
:100FE0002A3040F0C6FFF9CF2F7D3FEE320F36306A
:100FF000A0F727504C2FC501B40163DF4B015C0102
:10100000C260D15051F0C8012CD297FFE0CFC1FD92
:1010100004C0B0CF812C912C5401C7FF08C0B094FC
:10102000A09490948094811C911CA11CB11C2C2F25
:10103000B501A401C70139DF81E0DF91CF911F9194
:101040000F91FF90EF90BF90AF909F908F90089579
:101050005F926F927F928F929F92AF92BF92CF9248
:10106000DF92EF92FF920F931F93CF93DF93CDB751
:10107000DEB7A0970FB6F894DEBF0FBECDBF5C0100
:10108000962E7A01F9018E010F5F1F4F680180E2F1
:10109000D8011D928A95E9F7D50113968C9080E0CE
:1010A00090E0612C712C30E061E070E083FC2591D0
:1010B00083FE21918F01522E211103C080E090E028
:1010C00090C02E3511F4009751F1432F50E048178E
:1010D00059073CF42D3559F12D3219F4772009F1D7
:1010E00003C0772009F468C0452D4695469546957E
:1010F000D601A40FB11D452D47708B0102C0000F12
:10110000111F4A95E2F7A8015C91452B4C93651499
:1011100059F0561410F45394E7CF5A94E5CF31E0C8
:1011200004C07724739401C0712C0196BFCF77203F
:1011300019F08E8180628E83311103C088248394DC
:1011400017C0F6019E012F5D3F4F808180958193EE
:101150002E173F07D1F7F2CFE114F10429F0D701A0
:101160008C93F70131967F019A94812C9920E9F0B4
:10117000C50177D197FD17C0FC01FF2723E0F59546
:10118000E7952A95E1F7EC0DFD1D208130E0AC01DB
:101190004770552702C0359527954A95E2F720FDFF
:1011A000DBCFB5019CD1811089CFE114F10411F09E
:1011B000D7011C92C80115C0422F46954695469509
:1011C000D601A40FB11D422F47708B0102C0000F42
:1011D000111F4A95E2F7A8015C91452B4C93622EB2
:1011E000A4CFA0960FB6F894DEBF0FBECDBFDF919F
:1011F000CF911F910F91FF90EF90DF90CF90BF9014
:10120000AF909F908F907F906F905F9008955F92C6
:101210006F927F928F929F92AF92BF92CF92DF9206
:10122000EF92FF920F931F93CF93DF936C01EB012B
:101230005A01FC0117821682512CF601E380FE014F
:10124000E3FC8591E3FE8191182FEF01882309F4D7
:10125000E0C090E0F3D0892B19F0C60159DEEDCF44
:10126000153241F4FE01E3FC1591E3FE1191EF010B
:10127000153271F4C601F5D097FDC9C0412F50E079
:101280009C01332724173507C1F2B60128D1C1C00C
:101290001A3239F4E3FC1591E3FE1191EF0101E0FC
:1012A00001C000E0F12C20ED210F2A3078F402601B
:1012B0006F2D70E080E090E040E203DEF62EFE014C
:1012C000E3FC1591E3FE1191EF01EDCF01FF03C0A7
:1012D000F11003C09EC0FF24FA94183619F01C3692
:1012E00051F010C0FE01E3FC1591E3FE1191EF01F6
:1012F000183641F408600460FE01E3FC1591E3FE3A
:101300001191EF01112309F484C0612F70E084EE84
:1013100090E09CD0892B09F47CC000FD07C0F5014A
:1013200080809180C50102965C0102C0812C912CC5
:101330001E3649F4F6014681578160E070E0202FA7
:10134000C401B3DD7ACF1336A1F401FD02C0FF243E
:10135000F394C60186D097FD5AC08114910429F0F8
:10136000F4018083C40101964C01FA94F110F1CF8D
:101370004AC01B3551F49E01A4016F2DC60168DEE1
:10138000EC01892B09F03FC039C0C601C1DD97FDD2
:101390003EC01F3649F128F4143621F1193639F1CF
:1013A00025C0133771F01537E9F020C0811491047E
:1013B00029F0F4016082C40101964C01FA94FF20E7
:1013C00059F0C6014ED03C0197FD06C037D0892B9D
:1013D00069F3B601C30183D081149104A1F0F40133
:1013E000108211C0006203C0006101C00064202FA0
:1013F000A4016F2DC601A2DD811105C0F601838114
:10140000807329F406C000FD18CF539416CF5520E1
:1014100019F0852D90E002C08FEF9FEFDF91CF9103
:101420001F910F91FF90EF90DF90CF90BF90AF9002
:101430009F908F907F906F905F900895911168C0FA
:10144000803219F089508550D0F70895FC0105903D
:10145000061621F00020D9F7C00108953197CF0179
:101460000895CF93DF93EC012B8120FF33C026FF3B
:101470000AC02F7B2B838E819F8101969F838E8351
:101480008A8190E029C022FF0FC0E881F981808124
:10149000082E000C990B009719F420622B831AC0B8
:1014A0003196F983E8830EC0EA85FB85199597FF8D
:1014B00009C02B81019611F080E201C080E1822BEE
:1014C0008B8308C02E813F812F5F3F4F3F832E8348
:1014D000992702C08FEF9FEFDF91CF910895FB0115
:1014E000238120FF12C026FD10C08F3F3FEF9307DE
:1014F00061F082832F7D20642383268137812150F0
:10150000310937832683992708958FEF9FEF089538
:0A151000992788270895F894FFCF6B
:10151A000000C8052000466F6C67656E646520424E
:10152A00656665686C65206B6F656E6E656E2065B5
:10153A00696E6765676562656E2077657264656E58
:10154A003A0D0A004C6564207820616E092D094C19
:10155A0065642065696E736368616C74656E2028C2
:10156A0078203D2030202D203729200D0A004C45B7
:10157A0044207820617573092D094C6564206175D2
:10158A0073736368616C74656E202878203D20301F
:10159A00202D2037290D0A004C4544207820626C02
:1015AA00696E6B092D094C454420626C696E6B6546
:1015BA006E206C617373656E202878203D20302080
:1015CA002D203729200D0A00546173746572207822
:1015DA00092D0944656E205A757374616E6420641E
:1015EA0065732054617374657273206175736765DE
:1015FA0062656E202878203D2030202D2037290D65
:10160A000A004C4544207809092D0944656E205A80
:10161A00757374616E6420646572204C4544206160
:10162A007375676562656E202878203D2030202D0D
:10163A002037290D0A0054726170203009092D09DA
:10164A0044696520547261702D46756E6B74696FBA
:10165A006E20617573736368616C74656E200D0A20
:10166A000054726170203109092D094469652054BA
:10167A007261702D46756E6B74696F6E2065696E46
:10168A00736368616C74656E200D0A0068656C701E
:10169A0009092D0945696E65205565626572736988
:1016AA0063687420756562657220646965206D6F70
:1016BA0065676C696368656E2042656665686C6516
:1016CA00206D697420646572207A7567686F657227
:1016DA006967656E2053796E74617820616E7A65E8
:1016EA006967656E0D0A000D0A547261702077757C
:1016FA007264652061757367656C6F6573740D0A32
:10170A000025686864006C656400616E00626C693B
:10171A006E6B004C6564205A757374616E643A206E
:10172A000074617374657200546173746572205A2F
:10173A00757374616E643A20007472617000686532
:10174A006C70004D6963726F636F6E74726F6C6C4C
:10175A006572204C61626F72202D205465726D692A
:10176A006E616C205365727665720D0A0056616C63
:10177A00656E74696E204669736368657220756E5A
:10178A0064204C656F6E69652057756E6472616D71
:10179A000D0A00575332312F32320D0A0D0A0D0A43
:1017AA000D0A00426974746520676562656E20538C
:1017BA0069652065696E656E2042656665686C209C
:1017CA0065696E2E2057656E6E20536965206869BB
:1017DA006C66652062656E6F65746967656E2074F4
:1017EA00697070656E205369652068656C700D0AB2
:0417FA000D0A0000D4
:00000001FF
